S01A00004D58545F4558414D504C455F5553415254312E7372656387
S21440000078304020451F4000431F4000431F4000BB
S214400010431F4000431F4000431F400000000000B5
S214400020000000000000000000000000431F4000E9
S214400030431F400000000000431F4000431F400095
S214400040431F4000431F40008D244000431F400094
S214400050431F4000431F4000431F4000431F4000D3
S214400060431F400000000000BD184000D11840006B
S214400070E5184000431F4000431F4000431F400018
S214400080F91840000D194000431F4000431F400030
S214400090431F4000431F4000431F4000431F400093
S2144000A0431F4000431F4000431F4000431F400083
S2144000B0431F4000431F4000431F4000431F400073
S2144000C0431F4000431F4000431F4000431F400063
S2144000D0431F4000431F4000431F4000431F400053
S2144000E0431F4000431F4000431F4000431F400043
S2144000F0431F4000431F4000431F4000431F400033
S214400100431F4000431F4000431F4000431F400022
S214400110431F4000000000000000000000000000F8
S214400120431F4000431F4000431F4000431F400002
S214400130431F4000431F4000431F4000431F4000F2
S214400140431F4000431F4000431F4000431F4000E2
S214400150431F4000000000000000000000000000B8
S214400160000000000000000010B5054C237833B9AD
S214400170044B13B10448AFF300800123237010BD35
S214400180F00A4020000000007C8B45000C4B43B139
S2144001900C480D4910B5AFF300800C48036823B9EE
S2144001A010BD0A48036833B97047094B002BF7D097
S2144001B0BDE810401847064B002BF5D0184700BF47
S2144001C0000000007C8B4500F40A40207C8B4500F4
S2144001D00000000021B9436823F0010343607047E4
S2144001E0436843F00103436070470162704730B490
S2144001F085688468A54203D085688468AC42FBD194
S21440020061B1C4F3015000EB8005C4F3034000EB3A
S214400210450014F4800F18BF0C30086042B1C4F398
S214400220023101EB8101C4F3032000EB4101116070
S21440023043B1C4F3021202EB820204F00F0404EB53
S21440024042041C6030BC7047F0B4446814F0010FA0
S21440025005D00C2903D90C394FF4800700E000275D
S2144002601C4CA4FB0356F60806EB8605A3EB450399
S21440027043EA0613A4FB0265ED0843EA053305EBA3
S2144002808505A2EB450543EA05233B43A4FB014213
S214400290D20843EA025302EB8202A1EB420143EA50
S2144002A00141836913F0040FFBD0036843F0010358
S2144002B00360836913F0010FFBD00123C3618160A3
S2144002C0036823F001030360C06A00F00100F0BC3D
S2144002D0704700BFCDCCCCCCF0B5059C069D079FA3
S2144002E00E46B1B1416811F0010F05D00C2A03D972
S2144002F00C3A4FF4800600E000261949A1FB02E1C3
S214400300C90801EB810EA2EB4E02120442EA0152EA
S21440031016435BB1124BA3FB0423DB0803EB8302BB
S214400320A4EB4204240244EA0334264355B10C4B62
S214400330A3FB0723DB0803EB8302A7EB420747EA4E
S21440034003131E430269074B1340036106610269AB
S214400350054B13430361C06A00F00400F0BD00BFC4
S214400360CDCCCCCC7F7F7FFF8080800070B42A4D80
S214400370A5FB0346F608039C640544EA067406EBB0
S2144003808606A3EB460344EA0363A5FB0264E4083F
S21440039043EA045304EB8404A2EB440243EA0242D9
S2144003A01E4BA3FB01439B0942EA03121C4BA3FBD3
S2144003B001435B09A5FB0364E40804EB8404A3EB58
S2144003C044031A43A5FB0143DB0803EB8304A1EB7C
S2144003D0440142EA0122A5FB0315ED0805EB85051D
S2144003E0A3EB450542EA0532836913F0040FFBD0C0
S2144003F0036843F002030360836913F0010FFBD0E8
S2144004000123C361C260036823F002030360C06A2D
S21440041000F0020070BC7047CDCCCCCCD34D6210FF
S2144004201F85EB5130B4029D0C4651B1124CA4FBD3
S2144004300214E40804EB8401A2EB4102120442EAEF
S21440044004545BB10C4AA2FB0532D20802EB82038D
S214400450A5EB43031B0643EA02731C434269074B62
S2144004601340436144614269054B13434361C06A8C
S21440047000F0080030BC7047CDCCCCCCFFFF7F7F6F
S21440048000008080C1617047F0B587B004460E46D4
S21440049017468160027383610025056107209D4BE6
S2144004A09847206001950595022302930390072301
S2144004B004938DF8147001A93046974B9847401B1B
S2144004C018BF0120404208B107B0F0BD2568A879A2
S2144004D000EB400040008F4B98476060002301933C
S2144004E00493059307238DF8043002230293039068
S2144004F0AB7903EB43035B000493237B8DF8143006
S21440050001A9A068844B9847003018BF012040429C
S2144005100028D9D127686068BB7903EB430676008C
S2144005200736B6B23A4606370021DFF8F0C192F8F1
S21440053001E0157845EA0E2585EA410111F0807FF5
S21440054018BF81EA0C010232BA42F0D1027843EA7F
S214400550022383EA410212F0807F03D082F4000235
S21440056082F01B02A6F10807012F12DD0123DFF8F7
S214400570ACE1C1184D78C15C41EA052181EA4202EE
S21440058012F0807F18BF82EA0E0202339BB2BB4253
S214400590EFDB304410F8083C83EA420212F0807FDA
S2144005A003D082F4000282F01B0222F07F45002333
S2144005B0019305938DF80460360A8DF80560022392
S2144005C00293CDF80CD003230493237B8DF814308C
S2144005D001A9A068504B984728B34FF0FF33AB4271
S2144005E040F08B802568A87998B100230133DAB2B1
S2144005F09042FBD86268431EDBB2013303EB4303F1
S21440060002EB4301002053791844C0B206329142AF
S214400610F9D140003F4B98476061AB7973B10027F2
S2144006200126BE4637E09DF802209DF8003043EA9A
S21440063002439DF8012043EA0223D0E76FF003000F
S21440064042E70130C0B262685319197981421CD31F
S2144006505B79002BF5D062682A445379002BF0D0A2
S21440066033461178626902F81310626902EB43025E
S21440067050700133DBB262682A44991B92F805C079
S214400680C9B28C45EDD81E46DBE70137FFB223687A
S2144006909B799F4207D207EB47035A00154663688B
S2144006A013447046D4E75BB31046013BDBB20133DC
S2144006B003EB430302EB4302002143791944C9B2DA
S2144006C006308242F9D1F1B162691378092B0FD016
S2144006D000230133DBB28B420CD012F8020F0928FC
S2144006E0F7D15BB2B3F1FF3F10D023770020EBE6A3
S2144006F00023F6E76FF00300E6E66FF00300E3E65C
S2144007006FF00300E0E66FF00300DDE66FF00300F5
S214400710DAE600BF11324000C11C40001B008000DA
S21440072003689A79D2B110B4446823788B420ED0CD
S214400730A31D013AD2B2013202EB420204EB42025E
S214400740934209D01C4613F8060B8842F8D1B4F8F9
S21440075001005DF8044B70470020FAE70020704720
S21440076030B587B000230193049305938DF80410A9
S2144007700B0A8DF8053002230293039203689A7998
S214400780BAB14468B4F801308B420FD0A31D013A89
S214400790D2B2013202EB420204EB4202934216D03E
S2144007A01C460633B4F801508D42F7D1E278013248
S2144007B0D2B20492037B8DF8143001A98068054BB1
S2144007C09847003018BF0120404207B030BD002295
S2144007D0EFE700BF6D1D400000B589B08DF80720DB
S2144007E00023039307938DF80C10090A8DF80D101B
S2144007F0022304930DF10703059301230693037B1D
S2144008008DF81C3003A98068044B9847003018BF09
S2144008100120404209B05DF804FB00BF6D1D40005A
S2144008208269074B03EB52135B02D96B02F01F023F
S214400830012303FA02F20A420CBF18460020704712
S2144008400707200030B587B004460D460022052134
S2144008500D4B98470023019305938DF80400000A3A
S2144008608DF8050002230293039509230493237B06
S2144008708DF8143001A9A068044B9847003018BF83
S2144008800120404207B030BD21074000C11C400057
S214400890F0B585B004460E46174D184F2046A8477B
S2144008A028B301A92046B847034610BB9DF804303C
S2144008B0626912F81320092AF0D1227F9B1A3370FE
S2144008C09DF8053073709DF808309DF806101A099B
S2144008D042EA011272809DF8072003F00F0343EAB4
S2144008E00213B3809DF80930B371002301E06FF026
S2144008F00303184605B0F0BD2108400045084000F7
S21440090010B51048104B98473E2100200F4B984793
S2144009100F4CA0470028FCD00E4B98470E4A0F4B72
S2144009209A620F4CA0470028FCD002200D4B9847F7
S21440093000200D4B98470D4B98470D48024B984763
S21440094010BD00BF000E270719214000BD1940000A
S214400950111A4000211A4000013F182000060E40A0
S214400960311A400021194000591940000D2040001E
S21440097000A3E111002A54D02DE9F84F92460646CE
S2144009800F468A44DFF8B880274DDFF8B89006E077
S21440099021464046A8470028FAD1BA453ED017F827
S2144009A0014B4645F4D04E4516D0204B9E4219D0BA
S2144009B01F4B9E421CD01F4B9E421FD01E4B9E423A
S2144009C024D01E4B9E42E8D1DFF87CB021461B481F
S2144009D0D8470028FAD1E0E721464846A8470028ED
S2144009E0FAD1DAE721461148A8470028FAD1D4E7D9
S2144009F021460F48A8470028FAD1CEE7DFF848B08E
S214400A0021460C48D8470028FAD1C6E7DFF838B068
S214400A1021460948D8470028FAD1BEE70020BDE85D
S214400A20F88F0020704700BF0D1E4000001A0E4091
S214400A30001C0E40004002400080024000C00240C1
S214400A4000080E40000A0E40151F400010B5044630
S214400A50104B984780232360636843F0010363602C
S214400A60636843F010036360636823F08003636049
S214400A7000212046084B9847636823F002036360D2
S214400A80636823F00403636000212046034B9847C5
S214400A9010BD00BF611A40008D1A4000A31A4000E6
S214400AA02DE9F04104460D46164615491846154BA5
S214400AB09847074600231A4629682046DFF85C8098
S214400AC0C0470822296820460F4B9847FAB2296843
S214400AD020460E4B98470822296820460C4B9847DC
S214400AE07208296820460B4B984786F0010202F0B0
S214400AF0010229682046084B9847BDE8F08100BFB0
S214400B0080D1F0087F1B40006B1B4000951B4000C7
S214400B10251B4000E91A4000071B4000BD1B400053
S214400B2008B5436813F0040F06D009680F2900D9AA
S214400B3008BD064B984708BD09680329F8D8012325
S214400B4003FA01F1C943014B9847F1E78D1A40007B
S214400B501AB110B40C46114406E00020704714F851
S214400B60013BC360A1420CD043F69923026912F0C0
S214400B70020FF4D1013BF9D16FF002005DF8044B4F
S214400B8070470020FAE73AB170B415460C460D445B
S214400B90FF2640F2012112E000207047C66043F66F
S214400BA09923026931EA020204D0013BF9D16FF081
S214400BB002000EE0836804F8013BA5420BD043F6E2
S214400BC09923026912F0020FE8D1013BF9D16FF088
S214400BD0020070BC70470020FBE700002DE9F041A2
S214400BE080B90C469046002A0FDD8F18084E094DF6
S214400BF0306821462B6898470134BC42F8D14046BD
S214400C00BDE8F0814FF0FF38F9E78046F7E700BFD0
S214400C10B40F4020AC0F40200138022815D82DE9EB
S214400C20F0410E4614469AB10D46DFF838800C4F18
S214400C30D8F8000015F8011B3B68984700280ADBE7
S214400C40A81B013CF4D1BDE8F0814FF0FF3070475F
S214400C501046BDE8F0814FF0FF30BDE8F08100BFA0
S214400C60B00F4020B40F40202DE9F0414FF4004231
S214400C709E4B5A60BFF34F8FBFF36F8F9C4B002243
S214400C80C3F850225A6942F400325A61BFF34F8F7C
S214400C90BFF36F8FD3F88070C7F34E3607F0070068
S214400CA00430C7F3C907B7FA87FE0EF01F0EBFF32E
S214400CB04F8F4FF0FF3404FA00FC06FA00F004FAB7
S214400CC00EF407FA0EFE1D463A46734640EA030106
S214400CD0C5F86012013A2344B2F1FF3FF6D1013E17
S214400CE06044B6F1FF3FEFD1BFF34F8F804B5A6958
S214400CF042F480325A61BFF34F8FBFF36F8F7D4A05
S214400D007D495160A1F580715160BFF34F8FBFF3AD
S214400D106F8FD3F8902222F00102C3F89022D3F8C6
S214400D20942222F00102C3F89422BFF34F8FBFF300
S214400D306F8F0A20714CA0470B20A0470C20A0477D
S214400D401020A0471120A0476D4E4FF48078C6F87B
S214400D501080C6F8A080C6F830806A4C4FF4006514
S214400D606561C4F8A0506566C4F890506565256214
S214400D70C4F88450236F23F400632367636F23F41F
S214400D8000636367C4F8C050C4F8D450C4F8B05089
S214400D904FF400132366C4F8903063656362C4F86A
S214400DA08030226F22F400122267626F22F4001213
S214400DB062676360544AD2F8143143F01003C2F8B5
S214400DC0143102F5B22210231366C2F890305365F0
S214400DD05362C2F88030116F19431167516F19433F
S214400DE05167536008222266C4F8902062656262AA
S214400DF0C4F88020216F21F008012167616F21F03F
S214400E000801616762602366C4F890306365636278
S214400E10C4F88030226F22F010022267626F22F000
S214400E2010026267636000234FF400524FF0605137
S214400E303046364FB84700234FF080424FF060515F
S214400E403046B8470123FF224FF000613046B8478E
S214400E5001233F224FF000612D48B84701234FF44D
S214400E60C0324FF000612046B847012342464FF05B
S214400E7000613046B84701232A464FF000613046AD
S214400E80B84701234FF400224FF000612148B8478D
S214400E9000234FF400724FF080513046B8474FF46D
S214400EA0007130461C4B98474FF0805174201B4CC5
S214400EB0A0474FF080517520A0474FF080517620D4
S214400EC0A0474FF080517B20A0474FF0605118203C
S214400ED0A0474FF060510620A0474FF06051532086
S214400EE0A04753200E4B9847BDE8F08150180E405F
S214400EF000ED00E0000C0E400C08005A411A40007D
S214400F0000120E40000E0E4000800840C5154000FE
S214400F1000160E4000140E40CD144000CD16400082
S214400F209516400030B40468B4F5A07F02D340F272
S214400F303F1404601468B4F5A07F02D340F23F1417
S214400F4014600C68B4F5F07F02D340F2DF140C60F6
S214400F501C68B4F5F07F02D340F2DF141C600468CE
S214400F601568AC4201D9056014600A681868824268
S214400F7001D908601A6030BC7047000010B582B0D6
S214400F8006200A4B9847002303222C210848094C88
S214400F90A04700230193019BFE2B05D8019B0133FC
S214400FA00193019BFE2BF9D902B010BDB11640004B
S214400FB000800040B51A400070B582B005460E4627
S214400FC014460620144B984700230322294613480C
S214400FD0134DA84700230193019BFE2B05D8019B88
S214400FE001330193019BFE2BF9D90CB902B070BDB9
S214400FF006200C4B98472246314608480A4B9847ED
S21440100000230193019B5E2BF0D8019B0133019393
S214401010019B5E2BF9D9E9E7B116400000800040FD
S214401020B51A400095164000510B400030B583B0CD
S21440103004460D4606200A4B98472A46214609484C
S214401040094B984700230193019BFE2B05D8019B33
S21440105001330193019BFE2BF9D903B030BD00BF8D
S2144010609516400000800040510B4000014630B1CC
S214401070034A044B013BFDD19142FAD87047704772
S214401080A1860100A086010000B583B058B9482368
S2144010908DF8073001220DF107013620044B9847A2
S2144010A003B05DF804FBE8238DF80730F2E700BF95
S2144010B0B90F400010B584B0ADF80E00013A0244B6
S2144010C0ADF80C20ADF80A10013B1944ADF80810F5
S2144010D0030A8DF804308DF80500C2F307238DF817
S2144010E006308DF8072004220DEB02012A20104C12
S2144010F0A047002211461046A0479DF80B308DF8B9
S21440110004309DF80A308DF805309DF809308DF88A
S21440111006309DF808308DF8073004220DEB0201AA
S2144011202B20A047002211461046A04704B010BD11
S214401130B90F400008B5002211462920014B9847B8
S21440114008BD00BFB90F400010B4C0F30744C0F359
S2144011500721064B03F570721C7059709870033364
S2144011609342F9D15DF8044B704700BF0C0B40200A
S21440117010B584B0ADF80600ADF80410030A8DF83B
S2144011800C30C0B28DF80D008DF80E308DF80F0083
S214401190042203A92A200E4CA047002211461046DE
S2144011A0A0479DF805208DF80C209DF804308DF85A
S2144011B00D308DF80E208DF80F30042203A92B2019
S2144011C0A047002211461046A04704B010BD00BFFD
S2144011D0B90F40002DE9F04387B08146032706AE9D
S2144011E046F8087D5D4D28465D4B984700240094A0
S2144011F05C4B3A4631462846DFF89881C04722463F
S21440120039462846584B984731462846574B9847C4
S21440121001202860686122462146554EB047C820C6
S214401220544DA847224621461120B047C820A8471B
S21440123081238DF80A308DF80B4010264FF00108B8
S2144012404B4F254642460DF10A01FB20B8479DF814
S2144012500A3001338DF80A300395039BFE2B05D8E0
S214401260039B01330393039BFE2BF9D92A46294659
S214401270D320B8470620404B984742460DF1090117
S21440128036483E4B98470395039BFE2B05D8039B59
S21440129001330393039BFE2BF9D99DF80930B340E5
S2144012A01C4342460DF10B01FB20B8470395039AB9
S2144012B040F6FE739A4206D81A46039B01330393C0
S2144012C0039B9342F9D9083E16F1080FBAD149F26A
S2144012D088439C4203D0012007B0BDE8F08306ADAA
S2144012E0482305F8013D012229463620204EB047C6
S2144012F06420204CA04704238DF81730012229464D
S214401300CF20B0476420A04706238DF8173001222F
S21440131029463A20B0476420A047002211461320B1
S214401320B0476420A047164B98476420A04700204B
S214401330144B98476420A047B9F80430B9F8002009
S21440134000210846104CA047D9F808000F4B984794
S214401350002108460E4B98470020BDE7008000401D
S2144013604D0A4000002D3101251B4000210B400056
S214401370B90F40006D10400095164000870B4000A6
S2144013803511400089104000B5104000491140001A
S21440139071114000A10A40002DE9F04184B003904D
S2144013A00291019204AA42F8103D134601AA02A9EE
S2144013B003A8224CA047BDF80C00BDF80810009BBF
S2144013C001335B1A019A0132121A9BB292B21C4C3C
S2144013D0A0471C4B98470399019D691A009D01350B
S2144013E0029BED1A01FB0555174BA3FB05231B0A71
S2144013F063B15C1EDFF858804FF47077134E394661
S2144014004046B047013CB4F1FF3FF8D10E49A1FB3E
S2144014100531090A01EB8101A5EB811101EB410180
S2144014200B480A4B98474FF4F0734FF4A0720021D4
S2144014300846034CA04704B0BDE8F081250F4000A5
S214401440B51040007D0F4000CDCCCCCC2D104000D8
S2144014500C0B402010B584B003900291013A104422
S2144014600190013B194404AB43F8101D01AA02A9A0
S21440147003A8134CA047BDF80C00BDF80810009B0D
S21440148001335B1A019A0132121A9BB292B20D4C8A
S214401490A0470399019A511A029A009B9A1A02FB96
S2144014A001F202EB420206992C20074B98474FF474
S2144014B0F0734FF4A07200210846A04704B010BD58
S2144014C0250F4000B5104000B90F4000016370473B
S2144014D0416370474264B1F1C05F3AD013D8B1F16E
S2144014E0006F25D0B1F1805F0AD1036F13430367C5
S2144014F0436F416F0B4023EA0203436742607047E5
S2144015000029FBD17047B1F1205F21D009D8B1F155
S214401510005FF3D1036F13430367436F134343677F
S214401520ECE7B1F1405F13D0B1F1605F10D0E5E772
S21440153010B4016F046FD34321401C461940016725
S214401540436F416F0B402340436742605DF8044B56
S2144015507047036F016F0B4023EA02030367436F34
S21440156013434367CAE7416412F0010F0DD1016689
S21440157012F00A0F0BD0016212F0020F09D112F0DE
S214401580080F08D0C0F8841005E04166F0E74162D5
S214401590F2E7C0F8801041610160704710B4019CCA
S2144015A041644CB901664BB101654AB9416301617A
S2144015B001605DF8044B70474166F4E74165F4E727
S2144015C00163F4E770B582B0054616461C46B1F195
S2144015D0005F14D00AD9B1F1405F24D0B1F1605F0A
S2144015E021D0B1F1205F17D000201AE0B1F1805F22
S2144015F005D0B1F1C05F02D0B1F1006FF4D13246F0
S2144016002846114B984714F0010F02D12E66012050
S21440161007E06E66012004E01A4631460B4B9847B9
S214401620012002B070BD04F001030093C4F38003B0
S214401630B1F1605F14BF0022012231462846044CB7
S214401640A0470120EDE700BFD514400067154000D5
S2144016509D15400012F0100F12D0C0F8B01012F0D6
S214401660200F07D0C0F8D41012F0400F05D0C0F8B5
S214401670C0107047C0F8D010F6E7C0F8C4107047E6
S214401680C0F8B410704701647047C06C7047806CF7
S21440169070470000054B03EB50135B0200F01F0041
S2144016A0012202FA00F01863704700BF07072000C7
S2144016B0054B03EB50135B0200F01F00012202FAB9
S2144016C000F05863704700BF0707200070B582B02F
S2144016D00D46464C04EB5014640201F0F043B3F15F
S2144016E0005F59D00AD8B3F1805F2FD0B3F1C05F06
S2144016F03FD0B3F1006F16D0002012E0B3F1405F48
S2144017005DD0B3F1605F5AD0B3F1205FF4D100F002
S2144017101F0101262A4606FA01F12046344B984717
S214401720304602B070BD00F01F00012686403246AB
S2144017304FF0006120462F4B984715F0010F02D11D
S21440174026660120EDE766660120EAE700F01F0006
S2144017500126864032464FF080512046254B98471A
S21440176015F0010F02D126660120DAE766660120F1
S214401770D7E700F01F000126864032464FF0C051A2
S21440178020461C4B984715F0010F02D126660120D3
S214401790C7E766660120C4E700F01F0001268640C2
S2144017A032464FF000512046124B984715F0010F35
S2144017B002D126660120B4E766660120B1E705F04F
S2144017C0605200F01F01012605EA06030093C5F3A8
S2144017D08003B2F1605F14BF0022012206FA01F1D5
S2144017E02046054CA04730469BE700BF0707200031
S2144017F067154000D51440009D1540002DE9F04186
S214401800044688460E4B9847054620460D4B98475B
S214401810054013D00C4C04F1600603E0B4420DD0F2
S21440182010345DB120684045F8D161682942F5D052
S214401830E3689847636825EA0305EFE7BDE8F0816B
S2144018408B1640008F164000CC0E4020F8B5184C42
S2144018502668062E2AD84FF0000C6446154F04E042
S2144018600134E4B2A446A64209D3A64625017D59D2
S2144018708D42F5D107EB04156D689542F0D10D4DBC
S2144018804FEA0E1E05EB0E0445F80E106260A3608C
S2144018900699E1600136664505D011461A46064B64
S2144018A098470020F8BD02490E60F6E70120F8BDD3
S2144018B03C0F4020CC0E40205516400008B50A216B
S2144018C00148024B984708BD000E0E40FD174000E9
S2144018D008B50B210148024B984708BD00100E4042
S2144018E0FD17400008B50C210148024B984708BD3B
S2144018F000120E40FD17400008B510210148024B6B
S214401900984708BD00140E40FD17400008B5112149
S2144019100148024B984708BD00160E40FD17400090
S214401920032811D0042812D002280CBF4FF480712F
S2144019300021084A136B23F440730B431363936EE2
S21440194013F0080FFBD070474FF44071F1E74FF4A7
S2144019500071EEE700060E40174A136B23F0700343
S21440196018431063936E13F0080F0AD14FF4805358
S21440197011498A6E12F0080F03D1013BF9D10120BC
S21440198070470D4A136B23F0030343F002031363BF
S214401990936E13F0080F0AD14FF4805306498A6EAF
S2144019A012F0080F05D1013BF9D101207047002005
S2144019B070470020704700BF00060E40A0B90E4892
S2144019C0036A090289B20D4A1A400D4B1343194364
S2144019D001620246936E13F0010FFBD0064A116A6D
S2144019E0084B0B431362704703490B6A064A1A407A
S2144019F0064B13430B62704700060E40FCFFC8FFC1
S214401A000100370000003701FCFFC8FE0200370126
S214401A10024B986E00F48030704700BF00060E40C0
S214401A204FF00052014B9A62704700BF00060E40CE
S214401A30024B986E00F00200704700BF00060E4052
S214401A4000F07F00054BC3F80C01D3F80C2142F0A0
S214401A501022C3F80C210020704700BF00060E403D
S214401A6008B5074B984203D0064B984204D008BDB1
S214401A701520054B984708BD2A20034B9847F6E7A4
S214401A800080004000800540411A4000436823F42F
S214401A90702343604368090401F470211943416090
S214401AA07047436823F07F434360436843EA0161DD
S214401AB04160704730B443F69924056915F0020F2B
S214401AC003D1013CF9D101200CE0446814F0020F28
S214401AD006D0120402F4702211430BB141F080711B
S214401AE0C160002030BC704732B900EB8100036B08
S214401AF023F001030363704700EB8100036B43F060
S214401B0001030363704732B900EB8100036B23F097
S214401B1002030363704700EB8100036B43F002034C
S214401B2003637047042A03D06AB1082A16D0704768
S214401B3000EB8100036B23F008030363036B43F061
S214401B4004030363704700EB8100036B23F0080334
S214401B500363036B23F004030363704700EB8100C9
S214401B60036B43F008030363E1E700EB81010B6B73
S214401B7023F0F0030B630B6B1A430A637047431E54
S214401B801944B1FBF0F0431EFE2B94BF00B24FF059
S214401B90FF3070477AB110B4144600EB81010B6BEE
S214401BA023F47F430B630A6B42EA04220A63002055
S214401BB05DF8044B70474FF0FF30704710B400EBB1
S214401BC08101086B80B208630C6B44EA036343EA06
S214401BD002430B635DF8044B70470000284B994264
S214401BE04BD8A3F57A5399422DD910B4254CA4FB73
S214401BF00234A40B033C244B0B449B00B2FBF3F291
S214401C00033AFF2C1DD9002101316408FF2C01D96D
S214401C100629F9D9FF2A07D9062905D801315208DD
S214401C20FF2A01D90629F9D913029BB2090401F407
S214401C30E0210B43E4B22343036100205DF8044BEC
S214401C4070470021E6E74900B2FBF1F2033AFF2A6B
S214401C5011D9002301335208FF2A01D9062BF9D99E
S214401C60110289B21B0403F4E0230B43D2B21A4399
S214401C700261002070470023F2E70120704700BF52
S214401C80801A0600F11976050012FD3F08B54FF0A0
S214401C90FF328262026A80220260026B0822026081
S214401CA020220260042202600A684968034B984773
S214401CB0012814BF0020012008BD00BFDD1B4000E6
S214401CC0CA68002A4CD070B48C68002646604B68C0
S214401CD01B0203F4407343F480530D7C2D0405F43B
S214401CE0FE052B434360C6604D685DB10B78012D01
S214401CF002DD4E7846EA0323022D04DD897841EA68
S214401D00032300E00023C36001230360022512E0A2
S214401D10056013F0020F1BD0036B2370036A13F0A9
S214401D20010FFBD0036A002070BC7047036B04F8B9
S214401D30013B013AF2D0036A13F4807F14D147F294
S214401D403051012AE4D013F0020FEFD1002AE5D03B
S214401D50036A13F4807F05D10139F2D10920E3E705
S214401D60012070470520DFE70520DDE7CB68002B24
S214401D7043D070B48C68002646600A7C120402F495
S214401D80FE024D682D0205F440752A434260C66047
S214401D904D685DB10A78012D02DD4E7846EA022292
S214401DA0022D04DD897841EA022200E00022C2606A
S214401DB004E014F8012B4263013B0FD0026A12F490
S214401DC0807F1ED112F0040FF3D1026A12F4807F96
S214401DD015D112F0040FECD1002BF6D1036A13F4A0
S214401DE0807F11D113F0040FF8D002230360036AFA
S214401DF013F0010FFBD0002004E0012070470520BF
S214401E0000E0052070BC70470520FBE7436913F0EF
S214401E10020F02D0C161002070470120704743691D
S214401E2013F0010F03D083690B7000207047012028
S214401E30704710B40B01934214D9C9004B0803EB0A
S214401E40C202B2FBF1F2D3085C1E4FF6FE718C4222
S214401E5001D9012017E0416841F4002141600CE0BF
S214401E60012010E0590801EBC202B2FBF3F2D3089E
S214401E705C1E4FF6FE718C42F2D8120402F4E02249
S214401E801A43026200205DF8044B7047084BC0F8C6
S214401E90E430002343604362836288230360242344
S214401EA003604FF4807303604FF400230360704771
S214401EB00041535570B505460C4616460F4B98479D
S214401EC000220F4B1A60A4B13246216828460D4BBB
S214401ED09847024678B96368A1680B4321690B436B
S214401EE0E1680B4306490B6069680B436B6010461C
S214401EF070BD0122FBE70122F9E700BF8D1E4000BE
S214401F00400F4020331E400040230360704710239C
S214401F1003607047436913F0020F04D0C1F3080111
S214401F20C1610020704701207047436913F0010FDC
S214401F3005D08369C3F308030B6000207047012077
S214401F407047FEE700B583B0254B264A9A4210D02C
S214401F50254B234A9A420CD2013B9B1A23F003039B
S214401F60043313441F4951F8040B42F8040B9A42B9
S214401F70F9D11E4B1E4A9A420AD2013B9B1A23F0C5
S214401F80030304331344002142F8041B9342FBD15D
S214401F90184A194B23F07F039360EFF31083B3FA8C
S214401FA083F35B09019372B6BFF35F8F0022134B36
S214401FB01A700199124A136843F470031360BFF312
S214401FC04F8FBFF36F8F29B101220C4B1A70BFF3AE
S214401FD05F8F62B60B4B98470B4B9847FEE700BFA8
S214401FE0000040207C8B4500F00A402078104020BE
S214401FF0F00A402000ED00E0000040000A004020CB
S21440200088ED00E0C1314000FD2D40003B4B1B6B8E
S21440201003F00303012B1DD083B1022B36D0374B80
S2144020201B6B03F07003702B5FD0344B1A6B344934
S214402030C2F302120B68D3400B607047314B5B69AA
S21440204013F0800F14BF4FF400424FF4FA422C4B6B
S2144020501A60E4E7294B1B6A13F0807F03D02A4AB4
S214402060274B1A60DBE7294A254B1A60234B1B6A2D
S21440207003F07003102B05D0202BD0D1224A204BE2
S2144020801A60CCE7224A1E4B1A60C8E71B4B1B6AF5
S21440209013F0807F16D01C4A194B1A60174B1B6BE7
S2144020A003F00303022BBAD1144A916A926A144889
S2144020B0C1F30A41036801FB0333D2B2B3FBF2F328
S2144020C00360ACE7114A0E4B1A600C4B1B6A03F0D8
S2144020D07003102B05D0202BE0D10B4A084B1A601A
S2144020E0DCE70B4A064B1A60D8E7054A13680949ED
S2144020F0A1FB03135B081360704700BF00060E4049
S2144021000C00402010180E40001BB70000093D0090
S21440211000127A00ABAAAAAA164B984213D9164BBD
S214402120984215D9154B984216D9154B984217D94F
S214402130144B984218D9144B984294BF134A144AE9
S214402140144B1A6070474FF08062124B1A6070470B
S214402150114A104B1A607047104A0E4B1A6070476F
S2144021600F4A0C4B1A6070474FF00422094B1A6016
S214402170704700BFBFF35E017FE7BD023FDB1C0434
S214402180FFCE7B05BFC2DA067FB6390800050004DD
S21440219000060004000C0E4000010004000200048B
S2144021A0000300040A4B1B6853B1094B1B681A18FE
S2144021B00849914208DB1046054A106018467047A9
S2144021C0054A034B1A60F0E74FF0FF30704700BFF8
S2144021D0440F4020FCFF4520783240204FF0FF302F
S2144021E070474FF400534B60002070470020704704
S2144021F008B50C4B1B7853B90B4B1B7843B94FF4BF
S21440220080710A480A4B98470122074B1A7008BD4E
S2144022104FF480710548074B98470022024B1A70CE
S21440222008BD00BF580F4020680F402000120E40E7
S214402230D1144000CD144000F0B583B005460C469E
S214402240002301932A4B984213D02A4B984218D029
S214402250294B98421DD0294B9D4222D0284B9D4267
S21440226027D0284B9D422ED0274B9D4235D003B0D9
S214402270F0BD1F46254E21463846B0470028FAD1C5
S214402280E9E71F46214E21463846B0470028FAD196
S214402290E4E71F461D4E21463846B0470028FAD18F
S2144022A0DFE71F46194E21463846B0470028FAD188
S2144022B0DAE71E46164D01A93046A8470028FAD14F
S2144022C0019B2370D3E71E46114D01A93046A8470F
S2144022D00028FAD1019B2370C9E71E460C4D01A980
S2144022E03046A8470028FAD1019B2370BFE700BFBD
S2144022F000080E40000A0E40001A0E40001C0E4019
S214402300004002400080024000C002401F1E4000C5
S2144023102B1F400070B50C462A4B984213D02A4BD0
S214402320984219D0294B98421FD0294B984225D025
S214402330284B98422BD0284B984231D0274B984276
S21440234037D0002070BD1E46254D21463046A84752
S2144023500028FAD1012070BD1E46214D2146304648
S214402360A8470028FAD1012070BD1E461C4D2146C4
S2144023703046A8470028FAD1012070BD1E46184DA9
S21440238021463046A8470028FAD1012070BD1E4697
S214402390144D21463046A8470028FAD1012070BD8A
S2144023A01E46104D21463046A8470028FAD1012047
S2144023B070BD1E460B4D21463046A8470028FAD130
S2144023C0012070BD00080E40000A0E40001A0E4064
S2144023D0001C0E40004002400080024000C0024008
S2144023E00D1E4000151F40002DE9F04782B01F46E5
S2144023F0DDF828800B780BB30546164618460C4683
S214402400DFF8409003E014F8013F1846B3B16A7A0B
S2144024109A42F8D32B7AC01A6B6803EBC00ADAF8F4
S21440242004108B684A680968009139463046C847A8
S214402430DAF804305B6843441E44E4E702B0BDE883
S214402440F08700BF5514400010B582B00A480B4BC9
S214402450984740F2DF1340F23F1200210846084CEE
S214402460A047084B00933A23562200210846064CC4
S214402470A04702B010BD00BFFCFCFC004911400064
S21440248099134000E894400055144000F0B589B0D8
S21440249000240794069408AF47F80C4D564B1C6032
S2144024A0564B1C60564D2C60564B1C70564E0221A7
S2144024B03046564B984700940123224619463046EC
S2144024C0534CA0473B4606AA07A93046514CA04766
S2144024D02B6801332B60059B3A2B7DDD474A1368FA
S2144024E00133136000222A60069B3A2B64DD424A81
S2144024F01368013313600023404A1360029301219E
S214402500019100930B46079A0A443046424CA04736
S214402510424B1B683A4A12689B1A002B68DB3F49BD
S2144025200B68013B0B600A680B68D1F800E03C483A
S21440253080FB0314E118DC17C4EBE1244FF4616C14
S2144025400CFB1434374E86FB04132344E41780FBFD
S21440255002171744D217344D80FB0E1070444FEAD2
S214402560EE71C1EBE0210CFB11E186FB0106701811
S214402570CE17C6EB6016C6EB0616A1EB8601009199
S214402580C4EB6313C2EBE72228492846284CA047F1
S214402590012300934FF4DC730A2229462548264C33
S2144025A0A0471E4B1B682BB90122244B1A700022F1
S2144025B0144B1A7009B0F0BD10490A6801320A601F
S2144025C000220292012101910B4400930B46079A88
S2144025D00D48114CA0479BE701330293012101911E
S2144025E0069B00930B46079A07480B4CA0478FE77D
S2144025F00122124B1A70D4E7480F40204C0F40205F
S214402600500F4020580F402060180E408504400070
S21440261025044000EF014000D9024000B80F40209A
S214402620C5B3A2918988888800104020E082400087
S214402630F939400000834000E92340003C01402037
S21440264070B582B00220124B9847124D00212846A2
S214402650114B98470024009423462246214628469C
S2144026600E4EB04723462246214628460C4EB047DB
S2144026700C4B0422C3F88020C3F8802183F8024321
S2144026801A6002212846084B984702B070BD00BF2A
S214402690411A400060180E40D50140006D034000CE
S2144026A04902400000E100E0EB014000074A084BC9
S2144026B053630848906342630749816348638B636A
S2144026C05963064999634B638A637047000140200B
S2144026D0880040204C004020C4004020100040208D
S2144026E010B582B0B0B94FF47C40154B98473223B2
S2144026F04FF4A07200214FF48770124CA047124B43
S214402700009320231A460F214FF48B700F4CA0479E
S21440271002B010BD4FF47C00094B984732234FF46B
S214402720A07200214FF48770064CA047064B0093DA
S21440273020231A460F214FF48B70044CA047E7E73E
S21440274049114000991340002C6445005514400040
S21440275030B583B004462B4B1A68136A516AD26A66
S21440276001FB0323284A13602848294B98474FF417
S214402770EB734FF49B724FF4D271A020254DA847BF
S21440278004BB2548224B98474FF4EA734FF49A729D
S2144027904FF4D371A2201F4CA047012300934FF45F
S2144027A0D773AA221D491E481E4CA0471E4B0093B5
S2144027B020231A464FF4D7714FF487701B4CA0471E
S2144027C003B030BD0020124B98474FF4EA734FF4E5
S2144027D09A724FF4D371A220A847012300934FF476
S2144027E0D773AA22124913480E4CA047124B0093A7
S2144027F020231A464FF4D7714FF487700B4CA047EE
S214402800DEE700BFFC0F4020B80F40205454540071
S2144028104911400099134000FCFCFC00F88240003F
S21440282000834000E92340002C7C450055144000BE
S214402830F0824000F48B40002C70450010B50648EE
S214402840064B98474FF4B873F0224FF4A471AA2071
S214402850034CA04710BD00BF808080004911400057
S2144028609913400010B50648064B98474FF4B87386
S21440287096224FF4A4715020034CA04710BD00BFD1
S21440288080808000491140009913400010B50648EA
S214402890064B98474FF4D27328224FF4C3710A2050
S2144028A0034CA04710BD00BF808080004911400007
S2144028B09913400010B50648064B9847A0234FF49E
S2144028C09B7282214FF48C70034CA04710BD00BF12
S2144028D080808000491140009913400010B506489A
S2144028E0064B9847D2234FF49B72B4214FF48C701A
S2144028F0034CA04710BD00BF8080800049114000B7
S2144029009913400010B50648064B98474FF482731B
S2144029104FF49B72E6214FF48C70034CA04710BDD9
S21440292080808000491140009913400010B5002077
S214402930044B98475A23DC223221B420024CA0474D
S21440294010BD00BF491140009913400008B5044B24
S2144029509847044B9847044B9847044B984708BD04
S2144029608D284000B5284000DD284000052940005D
S214402970A03896281ED8A1F5D27164291AD80E4BD5
S2144029801B788BB90D4A1368DB4313602BB10123C8
S2144029900B4A13700B4A137070470022084B1A708C
S2144029A00122084B1A7070470022054B1A7001220C
S2144029B0044B1A70704700BF680F4020740F4020C9
S2144029C0580F40203C01402069386E2814D8A1F2A8
S2144029D03911462910D8094A1368DB4313605BB1A6
S2144029E0074B1A68926B1A600122064B1A70002336
S2144029F0054A1360054A1360704700BF640F4020C5
S214402A00FC0F40203C014020540F4020600F4020E7
S214402A10C338282809D82339462906D8034A1368D4
S214402A20DB4313600122024B1A707047540F40205C
S214402A303C0140204138552814D8A1F23911462986
S214402A4010D8094A1368DB4313605BB1074B1A681A
S214402A50526B1A600122064B1A700023054A136017
S214402A60054A1360704700BF6C0F4020FC0F4020A3
S214402A703C014020540F4020600F402032280AD8A6
S214402A80A1F5BE71322906D8034A13680133136094
S214402A900122024B1A707047600F40203C014020D4
S214402AA0A0F5877046280AD87839322907D8044BCB
S214402AB01A68936A643393620122024B1A70704715
S214402AC0FC0F40203C01402070B504460D46D22302
S214402AD04FF49B72B4214FF48C700A4EB047A4F565
S214402AE08774322C0DD8AA3D322D0AD8064B1A6868
S214402AF092F83130DB43DBB282F831300122034BAF
S214402B001A7070BD99134000FC0F40203C014020D5
S214402B10A0F5877032280DD8DC3932290AD8064B02
S214402B201A6892F83030DB43DBB282F8303001224C
S214402B30024B1A70704700BFFC0F40203C014020FB
S214402B4038B504460D46A0F58773322B01D8322996
S214402B5003D91A4B1B683BB138BD184B1868C043A5
S214402B601860174B9847F4E729462046154B984778
S214402B7029462046144B984729462046134B9847EB
S214402B800E4B18680E4B984729462046104B9847E0
S214402B90104B1B68002BDFD0294620460E4B98472B
S214402BA0294620460D4B9847294620460C4B9847C9
S214402BB0294620460B4B9847CEE700BF5C0F402087
S214402BC0E126400071294000C9294000352A4000CE
S214402BD0112A4000540F40207D2A4000A12A400080
S214402BE0112B4000C92A40002DE9F047CEB00546DB
S214402BF0D222002119A8274B98470024264FDFF8F9
S214402C00B890DFF8B8800FE09DF85920234B1A6043
S214402C1004A919A8224B98470134E4B22846214B10
S214402C209847022C28D838B316A92846B847002813
S214402C30F4D1BDF85C1001EB8106C6F39316C6F5D9
S214402C40A076BDF85A30C3EB031ACAF3D31A9DF8E0
S214402C505820CDF80CA002969DF85900019000919E
S214402C60494604A8C0470D4B1B682A2BCCDC51466E
S214402C7030460D4B9847C7E714B94EB0BDE8F087CD
S214402C8019A80A4B9847024619A90948094B98477C
S214402C90F3E700BF8137400091084000700F4020A6
S214402CA0453A400021084000412B4000413B40004F
S214402CB0008002407509400090884500F939400080
S214402CC02DE9F04188B0344B9847344B9847344808
S214402CD04FF4A07303604FF4F0734360314B83604E
S214402CE0C360314B9847314E314B1E60314A324BB0
S214402CF01A60324A324B1A604FF4E1330293C023D3
S214402D0003934FF4006504950024059406940E2022
S214402D102C4FB8472C4A02A930462C4B9847304691
S214402D202B4B984730462B4B9847DFF8C880D8F84F
S214402D30003021469868284EB047D8F800302146E3
S214402D405868B0470C20B84723464FF480724FF07F
S214402D5040512248DFF8A080C0470A20B847204E9E
S214402D6001232A464FF020513046C0471D4B009362
S214402D7070232A460A2130461B4FB847294630461C
S214402D801A4B98471A4B4FF480621A6083F80A43EE
S214402D9008B0BDE8F08100BF01094000690C400062
S214402DA040104020FCFCFC00D51140000080024052
S214402DB0B40F402015234000B00F40203922400079
S214402DC0AC0F4020411A400080D1F008B51E4000AC
S214402DD0091F40000F1F40005938400000120E40A7
S214402DE0000E0E40F12140004D184000871640006E
S214402DF000E100E040014020C51540002DE9804834
S214402E00A9B0584B9847584B1860584B9847584B62
S214402E109847584C08AB94E8070003C31A8017AD90
S214402E2004F10C060FCE0FC50FCE0FC533682B60CE
S214402E3005AB04F1300207CA03C31A700EAD3C342A
S214402E400FCC0FC50FCC0FC523682B7000240D94F4
S214402E50494B0C934A268DF83460484B0B9313200D
S214402E60474B9847474D0BA92846474B9847022360
S214402E703246294620A8454DA8472246062120A886
S214402E80434DA8470122014620A8424EB04742483B
S214402E90424B98472246072120A8A84720220146B1
S214402EA020A8B0472246072120A8A847411C102248
S214402EB089B220A8B0472246072120A8A847811CEF
S214402EC04B2289B220A8B0472246072120A8A8470F
S214402ED0C11C842289B220A8B0472246082120A8D7
S214402EE0A84708AA014620A82D4FB84722460921E0
S214402EF020A8A84717AA014620A8B84722462E2150
S214402F0020A8A84705AA014620A8B8472246382147
S214402F1020A8A8470EAA014620A8B8472246062160
S214402F2020A8A847811C012289B220A8B0474FF4A8
S214402F3080711C481C4B98471C4B1C70DFF88490D3
S214402F401B4F0125FAE020A8C84750E0194B984788
S214402F5065E00095C823052217491848184CA04735
S214402F6085E000BFAD264000FC0F4020C12C40004D
S214402F704126400080824000801A060080D1F0083A
S214402F80411A4000008001408D1C400089044000EA
S214402F9021074000D9074000D828320001004020D1
S214402FA06107400000120E40CD144000680F4020DC
S214402FB0C5B3A2914D2940005C884500008340007F
S214402FC0E9234000E92B40000095FA2305225D499D
S214402FD05D485E4CA04700225D4B1A705D4B1B78E7
S214402FE0002B40F09A8020A8C0470028ABD1584B11
S214402FF01B78002BF2D0584B9847584B1868584BC4
S2144030009847584B9847584B9847584B1868584BD2
S2144030109847584B9847584B1B68002B96D1574CAF
S214403020574E226857493046DFF878B1D847009562
S2144030306423052231464448444EB04723689A6A82
S214403040DFF874A150495046D8470095962305228C
S21440305051463D48B047236893F83130002B3FF443
S21440306078AF0095C823052248493748B047434CB7
S2144030702268D16A136A506A454A126800FB0313F5
S2144030801344C3EB03139B00424803600268016885
S214403090066887FB01035818CB17C3EBE0234FF4B1
S2144030A0616B0BFB13133C4880FB031C9C44DB17F3
S2144030B087FB021E9644D21787FB061AB244F117C6
S2144030C0C1EBEA210BFB116680FB061030444FEA49
S2144030D0E67BCBEB601BCBEB0B1BA6EB8B06009685
S2144030E0C3EB6C13C2EBEE222C492D482D4EB04755
S2144030F000954FF4DC730A2229491348134EB04713
S214403100236893F83030002B3FF45EAF0095FA23E7
S214403110052225490C48B0475DE7002400942B461D
S214403120224629462148224EB047029501950094F2
S2144031302B46224621461D481E4CA047DFF87C8081
S21440314051E700BF8088450000834000E9234000E7
S2144031503C014020580F4020492440005C0F40204E
S214403160E12640003D28400065284000740F40207E
S214403170512740002D294000540F4020FC0F40208E
S214403180201040202C884500388845004C88450053
S214403190600F4020B80F402089888888E082400031
S2144031A000104020F93940007088450060180E40F5
S2144031B025044000D9024000BC0F402021084000B2
S2144031C070B50F4E0F4D761BB61018BF002405D0B5
S2144031D0013455F8043B9847A642F9D10A4E0B4DA8
S2144031E0761B55F0B5FCB61018BF002406D0013447
S2144031F055F8043B9847A642F9D170BD70BD00BF54
S2144032005C8B45005C8B4500648B45005C8B4500C1
S214403210024B0146186800F003B800BF400140204A
S2144032202DE9F04F01F10B06162E83B0054640F20D
S2144032309E8036F0070600F1BD80B14200F2BA80AB
S21440324000F0ECFAB6F5FC7FC0F09382730A00F00B
S214403250B880042B00F27981B30903F1390003F1F9
S214403260380EC300BF4F3B44A3F108015C68A1423F
S21440327006D10CE0002A80F2AA80E468A14206D07B
S214403280636823F003039A1B0F2AF3DD70463C69FC
S214403290DFF8E4E2744500F0AB81636823F0030393
S2144032A09A1B0F2A00F39081002AC7F814E0C7F84B
S2144032B010E080F29D80B3F5007F80F06181DB08EE
S2144032C003F1010C99107A6857F83C80C4F80880DE
S2144032D001238B4007EBCC0113430839E1607B6048
S2144032E047F83C40C8F80C408210012494409C4269
S2144032F000F28B801C4206D120F0030064001C4282
S21440330000F10400FAD007EBC009CC468046DCF852
S2144033100C309C4507D16DE1002A80F27B81DB684A
S2144033209C4500F06781596821F003018A1B0F2AEB
S214403330F2DDD3F80CC0D3F8088000939C192846D9
S21440334046F0010642F001055E60C8F80CC0CCF8B5
S21440335008807C613C61C4F80CE0C4F808E0656015
S2144033605A5000F061FA009B03F108041EE0102951
S21440337020D800F053FA102618230220794F3B44F9
S214403380A3F108025C68944200F03D816368E168FE
S214403390A66823F00303234428465A68F16042F0A7
S2144033A001028E605A6000F03FFA0834204603B0AF
S2144033B0BDE8F08F00240C2320462B6003B0BDE808
S2144033C0F08F40204FF400734FF03F0E4AE72344FF
S2144033D0E1685A68A66842F00102F16028468E60AD
S2144033E05A6000F021FA0834204603B0BDE8F08F5A
S2144033F0234428465A6842F001025A6000F014FA04
S2144034000834204603B0BDE8F08FBC68636823F0FC
S2144034100308B04504D3A8EB06030F2B00F38580C2
S214403420DFF85891504BD9F800201B6801323344DE
S21440343004EB080A00F0558103F580530F3323F45C
S2144034407F6B2BF00F0B5946284600F0F3F9411CD2
S214403450024600F0FC80824500F2F780434B196834
S2144034605944196000F04D81D9F8000001301BBF67
S214403470A2EB0A0A5144C9F80020196012F007016D
S21440348000F01581C1F10800C1F5805102440831B1
S21440349002EB0B09C9F30B09A1EB0909494628467B
S2144034A00193009200F0C6F9431C9DE80C0000F022
S2144034B04381801A484440F001001968BA60494484
S2144034C0BC425060196017D0B8F10F0F40F2FB8035
S2144034D06068A8F10C0222F0070204EB020E00F02E
S2144034E001004FF0050C10430F2A6060CEF804C070
S2144034F0CEF808C000F217811D4BBC681A6891428E
S21440350088BF19601B4B1A689142626888BF196071
S21440351022F003029642A2EB060301D80F2B04DCEE
S214403520284600F081F9002440E7A21943F0010341
S21440353046F0010666602846BA60536000F074F9AB
S2144035400834204603B0BDE8F08F142B71D9542BB5
S21440355000F2A380330B03F16F0003F16E0EC3003D
S21440356080E600BF70054020A80F4020780F40201E
S214403570A00F4020A40F4020780540207809402026
S2144035805A0A042A5BD9142A00F2AE8002F15C0182
S214403590C9005B3207EB010C7958ACF1080C8C453E
S2144035A000F088804A6822F00302934273D289680A
S2144035B08C45F7D1DCF80C207B68E260C4F808C084
S2144035C09460CCF80C408FE6A11946F0010C42F00E
S2144035D00106C4F804C0284679613961C1F80CE098
S2144035E0C1F808E04E60E25000F01EF90834DDE60F
S2144035F07B6879E608F1010818F0030F0CF1080C17
S2144036007FF485AE2DE0DC68A34208BF02303FF46D
S2144036103EAEBBE619441C464A68DB6854F8086F61
S21440362042F001024A602846F3609E6000F0FCF8D3
S214403630BCE603F15C0003F15B0EC30012E69A0998
S21440364002F13901C9003832A4E7BC4254D0BC6804
S214403650626822F003025DE759F80839994540F060
S214403660868010F0030F00F1FF30F5D17B6823EA27
S21440367004037B6064009C423FF6C7AE002C3FF4D8
S214403680C4AE1C4240467FF43EAE64001C4200F18D
S2144036900400FAD037E68C468CE7B3F5AA7F15D8F7
S2144036A0F30B03F1780003F1770EC300DAE54FF42D
S2144036B08051EDE67B689210012101FA02F2134335
S2144036C07B60624679E70123536029E740F2545213
S2144036D0934222D8B30C03F17D0003F17C0EC30065
S2144036E0C0E503F1100BAEE6542A29D81A0B02F1B6
S2144036F06F01C9006E324DE7204B19685944196076
S214403700B2E6CAF30B0000287FF4AEAE08EB0B031C
S214403710BA6843F001035360EEE67F204FF47E73B1
S2144037204FF07E0E9EE504F108012846009302F015
S2144037300BFE009B1968DFE601204FF00009BCE64F
S214403740B2F5AA7F05D8DA0B02F17801C9007732C4
S21440375020E740F254518A4205D89A0C02F17D0186
S214403760C9007C3216E74FF47E717E2212E77B68F2
S21440377080E7F00806F1080300E600BF780F402017
S21440378070B4860746D0541E002A41D0CAB20346BB
S21440379002E014F1FF343BD303F8012B9D07F8D128
S2144037A0032C2ED9CDB245EA05250F2C45EA054512
S2144037B019D903F110022646103E0F2E42F8105C2F
S2144037C042F80C5C42F8085C42F8045C02F11002D5
S2144037D0F2D8A4F1100222F00F0204F00F041032C7
S2144037E0032C13440DD91E462246043A032A46F8B3
S2144037F0045BFAD8221F22F003020432134404F07A
S21440380003042CB1C9B21C4403F8011B9C42FBD1F3
S21440381070BC704714460346C2E700BF014802F03A
S214403820B5BE00BF60104020014802F0B1BE00BFE8
S2144038306010402038B5074C0023054608462360F4
S214403840FEF7B0FC431C00D038BD2368002BFBD0ED
S2144038502B6038BD7410402000290CBF0222002285
S2144038604FF4806300F000B82DE9F043614C2568C2
S21440387083B004460F4690461E4615B1AB6B002BF0
S21440388064D0B8F1020F06D0B8F1010F00F29F8065
S214403890002EC0F29C80636ED80734D52146284659
S2144038A002F058FC216B41B104F14003994202D02A
S2144038B0284602F049FD00232363B4F90C30002269
S2144038C0A26162601A063AD423F44A6323F00303E3
S2144038D0B8F1020FA3811DD001AB6A4621462846A7
S2144038E002F058FEA3891843A081002E32D1009ED4
S2144038F03046FFF78DFC074600286BD0A38943F07F
S2144039008003A38128E0A3899905C7D4A06D02F05F
S2144039103DFEC3E70025616E002604F1430243F0F6
S21440392002030120A660CE07A38122602261606167
S21440393001D498053ED5284603B0BDE8F0832169FA
S214403940284602F001FDB4F90C30BDE7284602F0E7
S21440395059FC96E7002FCBD0AB6B002B33D0009BA7
S214403960B4F90C2027609E421CBF42F40062A2813C
S214403970B8F1010F04BF42F00102A28192B212F0E8
S2144039800803276166610ED0D1071AD5656E764268
S214403990002315F00105A661A36009D0002528463E
S2144039A003B0BDE8F083A360656E15F00105F5D160
S2144039B09305C0D4A06D02F0EBFD284603B0BDE8E9
S2144039C0F083A660F0E7284602F01CFCC7E74FF0FD
S2144039D0FF35B0E7DDF80090B14504D04846FFF724
S2144039E017FC074620B9B4F90C304FF0FF3592E784
S2144039F04E4683E7400140200EB4F0B59CB021AB64
S214403A000F4953F8042B019305466FF000440868AD
S214403A1002954FF402774FF6FF7602A90695ADF869
S214403A20147004940794ADF8166000F0F7F8029B03
S214403A3000221A701CB0BDE8F04003B0704700BFCB
S214403A4040014020830710B5044610D10268A2F119
S214403A50013323EA020313F0803F08D150F8042FC5
S214403A60A2F1013323EA020313F0803FF6D0037835
S214403A701BB110F8013F002BFBD100F003F82046A5
S214403A8010BD00BF80EA0102844612F0030F4FD1FA
S214403A9011F0030F32D14DF8044D11F0040F51F8D8
S214403AA0043B0BD0A3F101329A4312F0803F04BF8F
S214403AB04CF8043B51F8043B16D100BF51F8044B78
S214403AC0A3F101329A4312F0803FA4F101320BD1A8
S214403AD04CF8043BA24312F0803F04BF51F8043B2D
S214403AE04CF8044BEAD023460CF8013B13F0FF0F8A
S214403AF04FEA3323F8D15DF8044B704711F0010FBD
S214403B0006D011F8012B0CF8012B002A08BF70478D
S214403B1011F0020FBFD031F8022B12F0FF0F16BF84
S214403B202CF8022B8CF8002012F47F4FB3D170474C
S214403B3011F8012B0CF8012B002AF9D1704700BF71
S214403B4090F800F06DE9024520F007016FF0000C98
S214403B5010F0070491F820F040F049804FF0000440
S214403B606FF00700D1E9002391F840F000F108001B
S214403B7082FA4CF2A4FA8CF283FA4CF3A2FA8CF353
S214403B804BBBD1E9022382FA4CF200F10800A4FABA
S214403B908CF283FA4CF3A2FA8CF3E3B9D1E904230E
S214403BA082FA4CF200F10800A4FA8CF283FA4CF345
S214403BB0A2FA8CF37BB9D1E9062301F1200182FAFF
S214403BC04CF200F10800A4FA8CF283FA4CF3A2FA05
S214403BD08CF3002BC6D0002A04BF04301A4612BA13
S214403BE0B2FA82F2FDE8024500EBD2007047D1E916
S214403BF0002304F00305C4F100004FEAC50514F0A5
S214403C00040F91F840F00CFA05F562EA05021CBF75
S214403C1063EA050362464FF00004A9E72DE9F04F3A
S214403C20C3B00C460B9192460F930C9002F09CFC4E
S214403C3003681A931846FFF783FFA389199019065D
S214403C4003D52369002B01F0038000230DF1C8093A
S214403C501393159314932793269318931B930993C2
S214403C60CDF89490C846169317939AF80030544669
S214403C70E3B1252B02D119E0252B03D014F8013FE0
S214403C80002BF9D1A4EB0A0585B1269B279AC8F8E4
S214403C9000A001332A44072BC8F8045027922693E5
S214403CA07FDC08F10808099B2B4409932378002BF6
S214403CB07FD000231A468DF8773019460D939B46E1
S214403CC04FF0FF3063780A9004F1010A0AF1010AC6
S214403CD0A3F12000582800F2C183DFE810F0380234
S214403CE0BF03BF034002BF03BF03BF03BF03BF03FF
S214403CF0BF0345020302BF035D006B02BF0386029B
S214403D009D039D039D039D039D039D039D039D036E
S214403D109D03BF03BF03BF03BF03BF03BF03BF0370
S214403D20BF03BF03BF0337035703BF035703BF0396
S214403D30BF03BF03BF039803BF03BF03AD03BF0367
S214403D40BF03BF03BF03BF035902BF03BF031E0326
S214403D50BF03BF03BF03BF03BF03BF03BF03BF030E
S214403D60BF03BF03C602DB025703570357038B024A
S214403D70DB02BF03BF039002BF039D02CC01B40227
S214403D800802BF03E101BF037E00BF03BF030D026D
S214403D900D980F9340420D904BF0040B9AF800306C
S214403DA094E725AA0B990C9803F04AF840B9C84600
S214403DB079E7279B23B10C980B9925AA03F040F886
S214403DC00B9B9B8913F0400F099B18BF4FF0FF33A6
S214403DD00993099843B0BDE8F08F1BF0200F11936C
S214403DE040F0DD810F9A1BF0100F134640F06E85B1
S214403DF01BF0400F00F06A8514880432002501232A
S214403E000F9200278DF877700A994A1C00F0658259
S214403E102BF08002079254EA050240F064820029A3
S214403E2040F03C84002B40F0D7841BF001030E93F7
S214403E3000F0048642AE302306F8413D0A9B0E9AB7
S214403E409342B8BF134608930023129317B1089BBA
S214403E5001330893079B13F00203109302D0089B8C
S214403E6002330893079B13F0840540F00E830D9BA6
S214403E70089AA3EB020BBBF1000F40F30683BBF19D
S214403E80100F279C269A29DD43462146A846102730
S214403E900C9C0B9D06E0ABF1100BBBF1100F03F131
S214403EA0080318DD0132B74826921031072A2791B9
S214403EB083E88100EFDD25AA2946204602F0C0FFB0
S214403EC000287FF47DAFABF1100BBBF1100F2799A4
S214403ED0269A4B46E6DC45460C4698460132A94BA8
S214403EE026925C44072A279488E8080800F39884BA
S214403EF09DF8777008F1080877B1269B01330134A6
S214403F000DF177010122072B2794269388E80600B7
S214403F1000F3DB8308F10808109B6BB1269B013346
S214403F2002341EA90222072B2794269388E806000F
S214403F3000F3D68308F10808802D00F015830A9B0D
S214403F400E9A9F1A002F36DD102F269B8E4D27DDAA
S214403F5042462146B0464FF0100B2E460C9C0B9D19
S214403F6004E0103F102F02F1080215DD0133103136
S214403F70072B2791269382E84008F2DD25AA29469A
S214403F80204602F05DFF00287FF41AAF103F102F46
S214403F902799269B4A46E9DC35460C4646469046D7
S214403FA001333C44072B2794269388E8A00000F36F
S214403FB0818308F10808079BDF0500F16882269B8D
S214403FC00E99C8F8006001330C44072B2794C8F8B4
S214403FD00410269300F34D8308F10808079B5B07FF
S214403FE03AD50D9B089A9D1A002D35DD102D269B3F
S214403FF020DD10260C9FDDF82CB004E0103D102D7F
S21440400008F1080816DD01335E4A26931034072B64
S214404010279488E84400F1DD25AA5946384602F040
S2144040200FFF00287FF4CCAE103D102D279C269B1A
S214404030C846E8DC0133534A26932C44072B279482
S21440404088E8240008DD25AA0B990C9802F0F8FEB3
S21440405000287FF4B5AE279C099B0D9A08998A42A2
S214404060ACBF9B185B180993002C40F00D830023CF
S2144040702693C846F9E511931BF0200340F0E381F0
S2144040801BF0100240F02E841BF0400300F02A8400
S2144040900F9913460A4604320C880F920025B0E664
S2144040A00F9A1193166800248DF87740151D002E40
S2144040B000F0A7860A9A531C00F00986214630462F
S2144040C002F096FA002800F0E186831B0E930A94CD
S2144040D00F95CDF81CB023EAE373089312949DF82D
S2144040E07770B3E69AF8003001222B21EEE54BF0CC
S2144040F0200B9AF80030E9E51193002A40F09587A6
S214404100224B18931BF0200F40F011810F9A1BF0A2
S214404110100F134640F0E1831BF0400F00F0DD83A4
S214404120043314880F9300251BF0010F00F00C8118
S21440413054EA050300F0088130239DF844208DF8AA
S21440414078308DF879204BF0020B022359E69AF826
S214404150003000297FF4BAAD01222021B6E54BF0AD
S214404160010B9AF80030B1E50F9C23680D93184672
S2144041700028234603F10403FFF60AAE0F939AF88D
S2144041800030A3E51089450020894500F0884500A9
S2144041904BF0100B1BF0200F11933FF423AE0F9DF6
S2144041A0073525F0070303F10802D3E900450F92CF
S2144041B0012326E69AF800302A2B0AF1010400F083
S2144041C02787A3F130000928A24600F2AD860023D7
S2144041D01C461AF8013B04EB840400EB4404A3F1AC
S2144041E030000928F5D90A9472E54BF0800B9AF80E
S2144041F000306BE54BF0400B9AF8003066E59AF8D5
S21440420000306C2B03BF9AF801304BF0200B0AF1BC
S214404210010A4BF0100B59E5002A40F011871BF0BD
S214404220200F40F0F9841BF0100F40F0AC841BF0D8
S214404230400F00F0A8840F9A136804320F92BDF81E
S21440424024201A8011E50F99B34B0C68189330223E
S214404250782304318DF8793011934BF0020B0F918F
S21440426000258DF878200223CBE50F9911930A6834
S2144042708DF8A02000230A461F468DF8773004327A
S21440428001230893CDF81CB00A9712970F920E930D
S21440429028AEDFE51193002A40F0EA861BF0200F97
S2144042A05DD11BF0100F40F008831BF0400F00F06C
S2144042B004830F99B1F900400431E51722462B4696
S2144042C00F91002A73F1000358DB0A999DF8777026
S2144042D04A1C4FF001037FF49BAD54EA050200F000
S2144042E0DF81CDF81CB0012B00F07B82022B40F022
S2144042F0068218984E46230904F00F0143EA0573D8
S2144043002A091C461546435C06F8013D54EA050357
S214404310F1D1A9EB06030E9390E51193002A40F0E5
S214404320A3867E4B18931BF0200F3FF4EFAE0F9DF5
S214404330073525F0070303F108021BF0010F0F9223
S214404340D3E900457FF4F4AE02235AE51193002AE0
S21440435040F086864BF0100B1BF0200FA1D00F9D2F
S214404360073525F00705D5E90023002A05F10801A1
S2144043701D4673F100030F911446A6DA2D276442BA
S21440438065EB45058DF8777001233DE51193002ACE
S21440439040F062860F9D073525F0070303F10802BB
S2144043A00F921A6815925B681493149B159D23F020
S2144043B00044284621464FF0FF32594B03F09AFD01
S2144043C0002840F04A83284621464FF0FF32544B9F
S2144043D003F072FD002840F0408315A80DC81499DC
S2144043E003F060FD002840F030859DF877704D4E14
S2144043F04D4B2BF080000790119803220021089225
S2144044000A914728D8BF1E460E9212911EE54BF0E1
S214404410080B9AF8003059E4A3F1300000231C46FC
S2144044201AF8013B04EB840400EB4404A3F130008B
S2144044300928F5D90D944BE44BF0100B11931BF063
S21440444020033FF41DAE0F9D073525F0070303F10B
S2144044500802D3E900450F920023D2E41193002AC4
S21440446040F0E785119A002A3FF4A3AC00230121CF
S2144044701F4608918DF8A020CDF81CB08DF87730F7
S2144044800A9312930E9128AEE4E4279C34E5119BE0
S214404490652B40F3A78015A80DC8149903F0F8FCC7
S2144044A0002800F05081269B204AC8F8002001339F
S2144044B001340122072B27942693C8F8042000F3E2
S2144044C06A8308F108081F9B139A279C934203DBD4
S2144044D0079BDD077FF582AD269B19991A9AC8F887
S2144044E0002001330C44072BC8F804102794269369
S2144044F000F39E8308F10808139B5E1E002E7FF78C
S2144045006DAD102E269B0A4D40F3F58122461027AE
S214404510DDF830B00B9C13E0F0884500DC884500A1
S214404520FFFFEF7FD0884500CC8845000C894500CA
S2144045302089450008F10808103E102E40F3DA8125
S21440454001331032072B2792269388E8A000F1DD2E
S21440455025AA2146584602F073FC00287FF430AC6A
S214404560279A269BC846E7E70D9B089A9F1A002F76
S2144045707FF7E5AC102F269BB64D27DD42462146F9
S214404580B0464FF0100B2E460C9C0B9D04E0103F9F
S214404590102F02F1080215DD01331031072B279149
S2144045A0269382E84008F2DD25AA2946204602F0F6
S2144045B047FC00287FF404AC103F102F2799269B19
S2144045C04A46E9DC35460C464646904601333C446E
S2144045D0072B2794269388E8A00000F3328208F140
S2144045E00808ACE4139B269F012B40F3FE8101375D
S2144045F001340123072F27942697C8F80060C8F88F
S214404600043000F3038208F10808199A1A9BC8F888
S214404610003001371444072F27942697C8F8042003
S21440462000F3008208F1080815A80DC8149903F095
S2144046302FFC139B002840F00181013B01370136D7
S2144046401C44072F26972794C8F80060C8F8043003
S21440465000F3278108F108081B9AC8F804200137A0
S214404660144421AB072F27942697C8F800307FF7CD
S214404670B3AC25AA0B990C9802F0E2FB00287FF415
S2144046809FAB279CC846A9E425AA0B990C9802F034
S214404690D7FB00283FF4EBACFFF792BBDDF81CB02D
S2144046A0012B00F03481022B25D1CDF81CB000241C
S2144046B000251EE625AA0B990C9802F0C1FB00289F
S2144046C07FF47EAB279CC84675E425AA0B990C98C8
S2144046D002F0B6FB00287FF473AB279CC8461BE469
S2144046E025AA0B990C9802F0ABFB00287FF468AB28
S2144046F0279CC84620E4CDF81CB000240025494637
S21440470000E03146E20842EA4572E80804F0070352
S21440471005461446303354EA050201F8013C01F1DF
S214404720FF36EED1079AD2077FF5F3AD302B3FF434
S214404730F0AD0239302306F8013CA9EB01030E9395
S2144047400E46FFF77BBB1F99002940F32E82129B33
S214404750139A9342A8BF1346002B1F460DDD269B97
S214404760C8F8006001333C44072B2794C8F804700F
S214404770269300F31F8308F10808129B002FA8BF5A
S214404780DB1B002B1F4640F3D680102F269B314D57
S21440479040F3ED8142462146B0464FF0100B2E4680
S2144047A00C9C0B9D04E00832103F102F40F3DB8139
S2144047B001331031072B2791269382E84008F2DD1B
S2144047C025AA2946204602F03BFB00287FF4F8AA9B
S2144047D02799269B4A46E7E70A9B0E934E46FFF7E5
S2144047E02DBB002D08BF0A2CC0F08F804E462046B9
S2144047F029460A22002303F0BBFB303206F8012D7F
S2144048002046294600230A2203F0B2FB04460D4602
S21440481054EA0503EBD1A9EB06030E93FFF70EBB54
S21440482025AA0B990C9802F00BFB00287FF4C8AA27
S2144048309DF87770279CC846FFF75EBB5E1E002E2D
S2144048407FF70AAF102E034D22DD22464FF0100BA5
S2144048500C9C06E020894500103E102E08F1080802
S21440486015DD01371032072F2792269788E8200853
S214404870F2DD25AA0B99204602F0E2FA00287FF4E2
S2144048809FAA103E102E279A269FC846E9DC14465B
S21440489001373444072F2794269788E860007FF72F
S2144048A0D9AE25AA0B990C9802F0CAFA00287FF4D4
S2144048B087AA279C269FC846CEE60F9A14681346BA
S2144048C00433E5170F9322462B46FAE404321C685D
S2144048D00F9201230025FFF794BA1C6804330F9308
S2144048E0002521E40F990A4604320C680F920025F1
S2144048F0FFF787BA144601333444072B2794269390
S21440490088E860007FF768ABB3E6DDF81CB0CDF80A
S2144049101CB042AE3034012306F8414D0E93FFF7EB
S2144049208DBA25AA0B990C9802F08AFA00287FF4D3
S21440493047AA279CC8461F9A139B9A4244DB079B6C
S214404940D90741D4139B12989A1A1D1A9542A8BFAC
S2144049501546002D0EDD2699C8F804500131064450
S2144049602C440729C8F800602794269100F33B8220
S21440497008F10808002DACBF561B1646002E7FF7E0
S2144049802DAB102E269BB04DB5DD22461027DDF808
S21440499030B00B9C04E008F10808103E102EA9DD4C
S2144049A001331032072B2792269388E8A000F2DDC9
S2144049B025AA2146584602F043FA00287FF400AA6A
S2144049C0279A269BC846E8E7269B19981A99C8F85E
S2144049D0001001330444072B2794C8F8040026939C
S2144049E000F3F58108F10808ACE7079BDA073FF5C6
S2144049F0FEAD013701340123072F27942697C8F8C8
S214404A000060C8F804307FF725AE4AE725AA0B9920
S214404A100C9802F015FA00287FF4D2A9279C269F0E
S214404A20C846F2E525AA0B990C9802F009FA002828
S214404A307FF4C6A9279C269FC846F5E54E46FFF755
S214404A40FDB925AA0B990C9802F0FAF900287FF4D4
S214404A50B7A9279CC846FFF772BA159C224620463F
S214404A60149C2346214603F045FA002840F08682EF
S214404A700A9B0133119B23F020030E9300F0E28142
S214404A80472B00F01E814BF480730793149B1F1E28
S214404A90159B0893BBBF3B4603F1004700232D23DD
S214404AA01093119B662B00F0BB81462B00F0DF80F5
S214404AB00E9B089A452B0CBF0A9B0A9D23A820A94B
S214404AC008BF5D1C049003911FA802213B4602903C
S214404AD0019500910C9800F073FB119B672B0646DE
S214404AE040F0E0811BF0010F00F046827419169AE0
S214404AF00898179B394603F0CBF9002840F06581AB
S214404B00239BA34206D230215A1C23921970239B22
S214404B109C42F9D89B1B13930E9B472B00F0E980D1
S214404B20119B652B40F3CD81119B662B1F9B1293E7
S214404B3000F09E81139B129A1946914200F38A8197
S214404B401BF0010F40F0138222EAE27308936723BA
S214404B500E921193109B002B40F0C4800A939DF850
S214404B607770FFF773B935460C4646469046013394
S214404B703C44072B2794269388E8A0003FF7D1AE05
S214404B8008F10808D7E60F9A136804320F92099A7C
S214404B901A60FFF76AB825AA0B990C9802F050F9EC
S214404BA000287FF40DA9C8468DE4269B274AC8F8FE
S214404BB00020013301340122072B27942693C8F89E
S214404BC0042072DC08F1080829B9139B1BB9079B1F
S214404BD0D8077FF503AA269B19981A9AC8F800208A
S214404BE0013302462244072B2792C8F80400269336
S214404BF000F38D8108F108080029C0F265811399F9
S214404C00C8F8006001338C18072B27942693C8F801
S214404C1004107FF7E1A92CE50F9A09991368CD1780
S214404C200846043229460F92C3E90001FFF71DB833
S214404C3025AA0B990C9802F003F900287FF4C0A827
S214404C40279CC84658E400BF208945000C8945008B
S214404C5040210C98FEF7E4FA0B9A10601061002889
S214404C6000F0F2810B9A40235361FEF7EEBF23A873
S214404C7020A90A9C049003911FA803210290089A39
S214404C8001943B4600910C9800F09AFA2546064659
S214404C90119B462B06EB05047FF429AF3378302B67
S214404CA000F078811F9D2C4421E725AA0B990C988B
S214404CB002F0C6F800287FF483A81F99279CC846B0
S214404CC082E70A9B002B08BF01230A93DBE63046A7
S214404CD00A94FEF735FF0F950E90CDF81CB00346AC
S214404CE0FFF7F9B92D2700238DF877700A93FFF761
S214404CF0AEB81F9B12931A46033304DB0A9B194631
S214404D009142BFF617AF119B023B11939DF844307A
S214404D108DF88430129B013B002B1F93BDBF129B26
S214404D20C3F101032D222B22092B8DF8852040F359
S214404D3016810DF193042046AB4D00E0104685FBEE
S214404D400312D917C1EBA20101EB8102A3EB420289
S214404D503032092900F8012C0B4600F1FF32EDDC19
S214404D6030330238D9B2844202F8011C40F26581E1
S214404D700DF18600134601E013F8011B00F8011BF5
S214404D80A342F9D101339B1A0DF18602134421AA9E
S214404D909B1A139A1B93012A13440E9340F31981CE
S214404DA00E9B199A13440E9323EAE3730893002349
S214404DB01293CFE625AA0B990C9802F041F80028EA
S214404DC07EF4FEAF279CC846D7E42346A2E625AA33
S214404DD00B990C9802F034F800287EF4F1AF1F9A35
S214404DE0279CC846AEE525AA0B990C9802F028F8F1
S214404DF000287EF4E5AF1F9A139B279C9A1AC84654
S214404E00B8E50A9B1296062B28BF06230A96374615
S214404E1008930F95CDF81CB00E93744EFFF716B856
S214404E2023A820A90A9D049003911FA8032102905D
S214404E30089A01953B4600910C9800F0C1F9064649
S214404E4044192BE706230A931DE62D278DF8777025
S214404E50FFF7CDBA199A139B1344129A0E93002A61
S214404E6040F3B08023EAE37308936723119371E617
S214404E70002B40F3C3800A9A002A40F099801BF02A
S214404E80010F40F0958008930E9363E60A9B0893C3
S214404E900E930A900F95CDF81CB012909DF877703F
S214404EA0FEF7D4BF119B472B7FF420AE1BF0010FBB
S214404EB07FF4EEAE239B9B1B13930E9B472B3FF436
S214404EC018AF1F9B129321E74F421031484D2FDAFF
S214404ED01024DDF830B004E008F10808103F102F29
S214404EE026DD01331032072B27922693C8F8005050
S214404EF0C8F80440F0DD25AA0B99584601F0A0FFFB
S214404F0000287EF45DAF279A269BC846E6E725AA8A
S214404F100B990C9801F094FF00287EF451AF1F992E
S214404F20279A269BC84667E600200A90FEF7D0BE22
S214404F3001333A44072B88E8A0002792269308F1CD
S214404F4008087FF75CAE25AA0B990C9801F078FF0D
S214404F5000287EF435AF279A269BC8464FE6303366
S214404F6030228DF887308DF8862022AB0FE7129BD3
S214404F70199A13440E9375E7239BCBE5149B1D4E5D
S214404F80002BB6BF2D279DF877708DF877701A4B9B
S214404F90FFF72FBA169A0898179B394602F078FF03
S214404FA000287FF47FAEC5F101051F952C449EE591
S214404FB0129B199A13440A9A1A4422EAE2730E92F2
S214404FC00893C7E5129B0E9AC3F101031A44134691
S214404FD0D0E71BF0010312937FF4E2AE0E9B23EA68
S214404FE0E3730893B6E500BF6766666604894500C6
S214404FF020894500D8884500D48845000A9B13B9C7
S2144050001BF0010F02D0199B0133D4E701233AE786
S2144050100F9D9AF80130286840EAE0700A902846CA
S2144050200430A2460F90FEF751BE8DF87710FFF77A
S21440503067B88DF87710FFF715BA0DF18603A6E628
S2144050408DF87710FFF7EBB80C9A0C2313604FF0EF
S214405050FF330993FEF7BDBE8DF87710FFF79AB978
S2144050608DF87710FFF776B98DF87710FFF759B9B6
S2144050708DF87710FFF712B9024B13B1024800F0D3
S21440508005B87047000000007562400000230146E6
S2144050901A46184601F068BF02690B69934200F34E
S2144050A08D802DE9F04F03F1FF3801F1140700F130
S2144050B0140B57F828205BF828304FEA880483B052
S2144050C00132B3FBF2F90BEB0403009407EB040A3E
S2144050D00193B9F1000F39D000252E46BC46DE4676
S2144050E05CF8044BDEF80030A2B209FB0255220CF5
S2144050F02C0C09FB0242ADB2751B96B2C6EB1346AA
S21440510015FA83F306EB23469BB243EA0643E24591
S2144051104FEA12454EF8043B4FEA2646E0D2009B43
S2144051205BF8033093B9019C231F9B450CD254F87F
S214405130043C4BB9A4F1080302E01A68043B1AB9D0
S2144051409B4508F1FF38F8D3C0F81080044601F0BC
S21440515037FD00282EDB09F101095D46002357F88C
S214405160041B28688AB29A1A0B0C12FA80F2C3EB18
S214405170104303EB224392B242EA0342BA4545F853
S214405180042B4FEA2343EAD25BF828200BEB880334
S21440519082B91A1F93450BD253F8042C42B9083BE8
S2144051A002E01A68043B1AB99B4508F1FF38F8D369
S2144051B0C4F81080484603B0BDE8F08F0020704722
S2144051C02DE9F04F016C9BB00446279E92469B46C5
S2144051D041B1426C4A60012393408B6001F018FB5A
S2144051E000232364BBF1000F5D4635DB00233360AC
S2144051F09D4BAB4315D0504659460022002302F043
S21440520047FE804600282DD0269A01231360289B0F
S214405210002B00F0BD809548186001381BB0BDE8F3
S214405220F08F269A42F20F731360BAF1000F0DD139
S214405230C5F3130555B9289B8D48002BEED000F1D9
S2144052400803289A13601BB0BDE8F08F289B894856
S214405250002BE3D0C31CF4E701232BF0004533605A
S214405260AB46C5E718AA19AB0192009352465B4677
S214405270204601F045FD2B0D814671D0CBF313023D
S21440528042F07F51189FCDF850805046A3F2FF362B
S21440529041F440110022784B02F0DEF96CA3D3E9CA
S2144052A0002302F08DFB6CA3D3E9002302F0D6F96D
S2144052B0CDE90201304602F01DFB69A3D3E9002385
S2144052C002F07EFB02460B46DDE9020102F0C6F91B
S2144052D0CDE9040102F024FE002202900023DDE91D
S2144052E0040102F0DFFD002840F07381029D162D78
S2144052F000F25D81614B03EBC503D3E900015246E2
S2144053005B4602F0EDFD002800F0C5816B1E02935F
S21440531000230E93BF1B7B1E069300F1548100238F
S2144053200893029B002BC0F24581069A0D931146C6
S2144053301944002306910C93249B092B2AD8052B4D
S21440534040F35B86043B24930025249B023B032BBF
S21440535000F24286DFE813F0D403C902DF0361049B
S214405360189F199E3E4406F23243202B40F38E810E
S214405370C3F1400306F212409D402AFA00F028434B
S21440538002F0A8FA0123013EA1F1F871149381E7D7
S2144053903B4843E7002161642046259101F012FA1C
S2144053A04FF0FF330A93259A0F930123049020640D
S2144053B024920B93199B002BC0F2D980029A0E2A96
S2144053C000F3D5802D4B03EBC203D3E90023CDE990
S2144053D00823259B002BC0F2BA83DDE908565046C9
S2144053E02A463346594602F015FC02F099FD80469F
S2144053F002F080FA2A46334602F0E2FA0B460246AC
S2144054005946504602F028F9049D08F130032B70A7
S2144054100A9B012B06460F4605F1010568D000227F
S214405420184B02F0CDFA0022002306460F4602F043
S2144054302FFD002840F08880CDF82C904FF0000AD1
S214405440DFF840B00C94DDE9088928E0AFF300802F
S21440545061436F63A787D23FB3C8608B288AC63F35
S214405460FB799F501344D33F0000F07F0D894500E1
S214405470308945003C8945000000F83F6889450072
S2144054800C8945000000244002F09AFA00220023CE
S21440549006460F4602F0FCFC002840F0C183424618
S2144054A04B463046394602F0B5FB02F039FD04461D
S2144054B002F020FA42464B4602F082FA02460B467B
S2144054C03046394602F0C8F804F1300E049E05F81E
S2144054D001EBA5EB060E0A9EB645CDE906015246FF
S2144054E05B46D1D1A046DDF82C900C9C06460F4674
S2144054F032463B463046394602F0B0F806460F463E
S21440550002460B46DDE9080102F0CCFC48B93246BB
S2144055103B46DDE9080102F0BBFCA8B118F0010FDC
S21440552012D015F8018C049A6B1E04E09A4200F0E3
S214405530018413F8018DB8F1390F03F10105F5D058
S21440554008F1010883F800804946204601F060F9DA
S2144055500022029B2A70269A01331360289B002B58
S21440556000F09E8304981D601BB0BDE8F08F0B9A38
S214405570002A3ED0249A012A40F311830A9B0C9AB3
S2144055805F1EBA42C0F28F83D71B0A9B002BC0F225
S2144055908B84089D0A9B089A1A440892069A012111
S2144055A01A442046069201F0CDF9064624E001232F
S2144055B00E93AFE6089A029BD21A5B420C930023E6
S2144055C008920D93B8E6C7F10103089300230693AB
S2144055D0A7E6029D284602F08DF902460B46DDE915
S2144055E0040102F055FC00287FF480AE6B1E029347
S2144055F07CE60C9F089D0B9E002D0CDD069900292D
S2144056000B4608DDA942089AA8BF2B46D21AED1AC7
S214405610CB1A089206930C9BD3B10B9B002B00F041
S214405620B782002F10DD31463A46204601F026FA72
S2144056304A4601460646204601F08EF949468046CF
S214405640204601F0E5F8C1460C9BDA1B40F0A182EB
S2144056500121204601F076F90D9B002B80461CDD8B
S21440566001461A46204601F009FA249B012B804643
S21440567040F3548200230C93D8F8103008EB830391
S214405680186901F00FF9C0F1200010E0C3F12005C1
S2144056900AFA05F074E60E903CE6249B012B40F394
S2144056A0878200230C930D9B0120002BE4D1069AA1
S2144056B0104410F01F0000F0A180C0F12003042B1E
S2144056C040F39E84089BC0F11C0003440893134695
S2144056D0034405440693089B002B05DD49461A46BD
S2144056E0204601F01BFA8146069B002B05DD41460D
S2144056F01A46204601F012FA80460E9B002B40F0D8
S21440570086800A9B002B40F366820B9B002B00F0A2
S2144057109880002D05DD31462A46204601F0FEF9E8
S21440572006460C9B002B40F0378306960A9B049A4D
S214405730DDF818B0013BD3180B930AF001030C9325
S2144057401746C24651464846FFF7A6FC3146054630
S214405750484601F035FA5A460A905146204601F02E
S2144057604BFAC268804605F13003002A40F02B828F
S21440577001464846089301F023FA414606902046E3
S21440578001F046F8069A089B32B9249921B90C9A3A
S214405790002A00F0EF83249A0A990029C0F29F82DB
S2144057A005D1249919B90C99002900F09882002A4D
S2144057B000F306830B9A3B7007F101089742454673
S2144057C000F00C83494600230A22204601F02AF8BE
S2144057D05E45814631464FF000034FF00A022046B0
S2144057E000F0EB8101F01EF85946064600230A22D7
S2144057F0204601F017F847468346A3E71C20089B3F
S21440580003440893069B03440544069363E74146D6
S214405810484601F0D5F90028BFF673AF029F4946C7
S21440582000230A222046013F029700F0FBFF0B9B15
S2144058308146002B40F0B6830F9B002B40F3BF837E
S2144058400A93DDF810B00A9F5D4602E000F0EAFFDA
S214405850814641464846FFF71FFC00F1300A05F8EE
S21440586001ABA5EB0B03BB424FF00A024FF000031F
S21440587049462046EADB049B0A9A012AACBF9B189D
S21440588001331D464FF0000B49460122204601F0E9
S21440589045F94146814601F093F9002840F33D82A0
S2144058A015F8012C04996B1E04E08B4200F0AE8183
S2144058B013F8012D392A03F10105F6D001321A708A
